{
  "contractName": "PropertyRental",
  "abi": [
    {
      "inputs": [],
      "stateMutability": "nonpayable",
      "type": "constructor"
    },
    {
      "anonymous": false,
      "inputs": [
        {
          "indexed": false,
          "internalType": "uint256",
          "name": "propertyId",
          "type": "uint256"
        },
        {
          "indexed": false,
          "internalType": "address",
          "name": "renter",
          "type": "address"
        }
      ],
      "name": "PropertyRented",
      "type": "event"
    },
    {
      "inputs": [],
      "name": "owner",
      "outputs": [
        {
          "internalType": "address",
          "name": "",
          "type": "address"
        }
      ],
      "stateMutability": "view",
      "type": "function",
      "constant": true
    },
    {
      "inputs": [
        {
          "internalType": "uint256",
          "name": "",
          "type": "uint256"
        }
      ],
      "name": "properties",
      "outputs": [
        {
          "internalType": "uint256",
          "name": "id",
          "type": "uint256"
        },
        {
          "internalType": "address payable",
          "name": "agent",
          "type": "address"
        },
        {
          "internalType": "string",
          "name": "title",
          "type": "string"
        },
        {
          "internalType": "string",
          "name": "location",
          "type": "string"
        },
        {
          "internalType": "uint256",
          "name": "price",
          "type": "uint256"
        },
        {
          "internalType": "bool",
          "name": "isRented",
          "type": "bool"
        }
      ],
      "stateMutability": "view",
      "type": "function",
      "constant": true
    },
    {
      "inputs": [
        {
          "internalType": "uint256",
          "name": "id",
          "type": "uint256"
        },
        {
          "internalType": "address payable",
          "name": "agent",
          "type": "address"
        },
        {
          "internalType": "string",
          "name": "title",
          "type": "string"
        },
        {
          "internalType": "string",
          "name": "location",
          "type": "string"
        },
        {
          "internalType": "uint256",
          "name": "price",
          "type": "uint256"
        }
      ],
      "name": "addProperty",
      "outputs": [],
      "stateMutability": "nonpayable",
      "type": "function"
    },
    {
      "inputs": [
        {
          "internalType": "uint256",
          "name": "propertyId",
          "type": "uint256"
        }
      ],
      "name": "rentProperty",
      "outputs": [],
      "stateMutability": "payable",
      "type": "function",
      "payable": true
    },
    {
      "inputs": [
        {
          "internalType": "uint256",
          "name": "propertyId",
          "type": "uint256"
        }
      ],
      "name": "getProperty",
      "outputs": [
        {
          "internalType": "address",
          "name": "agent",
          "type": "address"
        },
        {
          "internalType": "string",
          "name": "title",
          "type": "string"
        },
        {
          "internalType": "string",
          "name": "location",
          "type": "string"
        },
        {
          "internalType": "uint256",
          "name": "price",
          "type": "uint256"
        },
        {
          "internalType": "bool",
          "name": "isRented",
          "type": "bool"
        }
      ],
      "stateMutability": "view",
      "type": "function",
      "constant": true
    }
  ],
  "bytecode": "0x608060405234801561001057600080fd5b50336000806101000a81548173ffffffffffffffffffffffffffffffffffffffff021916908373ffffffffffffffffffffffffffffffffffffffff160217905550610eec806100606000396000f3fe60806040526004361061004a5760003560e01c806332665ffb1461004f5780638da5cb5b146100905780639d36ab6c146100bb578063eb942129146100d7578063f7b1080814610100575b600080fd5b34801561005b57600080fd5b506100766004803603810190610071919061092f565b610142565b604051610087959493929190610b75565b60405180910390f35b34801561009c57600080fd5b506100a5610342565b6040516100b29190610b5a565b60405180910390f35b6100d560048036038101906100d0919061092f565b610366565b005b3480156100e357600080fd5b506100fe60048036038101906100f99190610958565b6104db565b005b34801561010c57600080fd5b506101276004803603810190610122919061092f565b610681565b60405161013996959493929190610c5f565b60405180910390f35b60006060806000806000600160008881526020019081526020016000206040518060c0016040529081600082015481526020016001820160009054906101000a900473ffffffffffffffffffffffffffffffffffffffff1673ffffffffffffffffffffffffffffffffffffffff1673ffffffffffffffffffffffffffffffffffffffff1681526020016002820180546101da90610de7565b80601f016020809104026020016040519081016040528092919081815260200182805461020690610de7565b80156102535780601f1061022857610100808354040283529160200191610253565b820191906000526020600020905b81548152906001019060200180831161023657829003601f168201915b5050505050815260200160038201805461026c90610de7565b80601f016020809104026020016040519081016040528092919081815260200182805461029890610de7565b80156102e55780601f106102ba576101008083540402835291602001916102e5565b820191906000526020600020905b8154815290600101906020018083116102c857829003601f168201915b50505050508152602001600482015481526020016005820160009054906101000a900460ff161515151581525050905080602001518160400151826060015183608001518460a00151955095509550955095505091939590929450565b60008054906101000a900473ffffffffffffffffffffffffffffffffffffffff1681565b60006001600083815260200190815260200160002090508060050160009054906101000a900460ff16156103cf576040517f08c379a00000000000000000000000000000000000000000000000000000000081526004016103c690610bd6565b60405180910390fd5b8060040154341015610416576040517f08c379a000000000000000000000000000000000000000000000000000000000815260040161040d90610c16565b60405180910390fd5b8060010160009054906101000a900473ffffffffffffffffffffffffffffffffffffffff1673ffffffffffffffffffffffffffffffffffffffff166108fc349081150290604051600060405180830381858888f19350505050158015610480573d6000803e3d6000fd5b5060018160050160006101000a81548160ff0219169083151502179055507f914bb2c4cb4cd0ff8a24b0fa464c8a78b230597bf0f7d94f93210371e67e543582336040516104cf929190610c36565b60405180910390a15050565b60008054906101000a900473ffffffffffffffffffffffffffffffffffffffff1673ffffffffffffffffffffffffffffffffffffffff163373ffffffffffffffffffffffffffffffffffffffff1614610569576040517f08c379a000000000000000000000000000000000000000000000000000000000815260040161056090610bf6565b60405180910390fd5b6040518060c001604052808681526020018573ffffffffffffffffffffffffffffffffffffffff16815260200184815260200183815260200182815260200160001515815250600160008781526020019081526020016000206000820151816000015560208201518160010160006101000a81548173ffffffffffffffffffffffffffffffffffffffff021916908373ffffffffffffffffffffffffffffffffffffffff160217905550604082015181600201908051906020019061062f9291906107fa565b50606082015181600301908051906020019061064c9291906107fa565b506080820151816004015560a08201518160050160006101000a81548160ff0219169083151502179055509050505050505050565b60016020528060005260406000206000915090508060000154908060010160009054906101000a900473ffffffffffffffffffffffffffffffffffffffff16908060020180546106d090610de7565b80601f01602080910402602001604051908101604052809291908181526020018280546106fc90610de7565b80156107495780601f1061071e57610100808354040283529160200191610749565b820191906000526020600020905b81548152906001019060200180831161072c57829003601f168201915b50505050509080600301805461075e90610de7565b80601f016020809104026020016040519081016040528092919081815260200182805461078a90610de7565b80156107d75780601f106107ac576101008083540402835291602001916107d7565b820191906000526020600020905b8154815290600101906020018083116107ba57829003601f168201915b5050505050908060040154908060050160009054906101000a900460ff16905086565b82805461080690610de7565b90600052602060002090601f016020900481019282610828576000855561086f565b82601f1061084157805160ff191683800117855561086f565b8280016001018555821561086f579182015b8281111561086e578251825591602001919060010190610853565b5b50905061087c9190610880565b5090565b5b80821115610899576000816000905550600101610881565b5090565b60006108b06108ab84610cff565b610cce565b9050828152602081018484840111156108c857600080fd5b6108d3848285610da5565b509392505050565b6000813590506108ea81610e88565b92915050565b600082601f83011261090157600080fd5b813561091184826020860161089d565b91505092915050565b60008135905061092981610e9f565b92915050565b60006020828403121561094157600080fd5b600061094f8482850161091a565b91505092915050565b600080600080600060a0868803121561097057600080fd5b600061097e8882890161091a565b955050602061098f888289016108db565b945050604086013567ffffffffffffffff8111156109ac57600080fd5b6109b8888289016108f0565b935050606086013567ffffffffffffffff8111156109d557600080fd5b6109e1888289016108f0565b92505060806109f28882890161091a565b9150509295509295909350565b610a0881610d5d565b82525050565b610a1781610d4b565b82525050565b610a2681610d6f565b82525050565b6000610a3782610d2f565b610a418185610d3a565b9350610a51818560208601610db4565b610a5a81610e77565b840191505092915050565b6000610a72601b83610d3a565b91507f50726f706572747920697320616c72656164792072656e7465642e00000000006000830152602082019050919050565b6000610ab2602283610d3a565b91507f4f6e6c7920746865206f776e65722063616e206164642070726f70657274696560008301527f732e0000000000000000000000000000000000000000000000000000000000006020830152604082019050919050565b6000610b18601383610d3a565b91507f496e73756666696369656e742066756e64732e000000000000000000000000006000830152602082019050919050565b610b5481610d9b565b82525050565b6000602082019050610b6f6000830184610a0e565b92915050565b600060a082019050610b8a6000830188610a0e565b8181036020830152610b9c8187610a2c565b90508181036040830152610bb08186610a2c565b9050610bbf6060830185610b4b565b610bcc6080830184610a1d565b9695505050505050565b60006020820190508181036000830152610bef81610a65565b9050919050565b60006020820190508181036000830152610c0f81610aa5565b9050919050565b60006020820190508181036000830152610c2f81610b0b565b9050919050565b6000604082019050610c4b6000830185610b4b565b610c586020830184610a0e565b9392505050565b600060c082019050610c746000830189610b4b565b610c8160208301886109ff565b8181036040830152610c938187610a2c565b90508181036060830152610ca78186610a2c565b9050610cb66080830185610b4b565b610cc360a0830184610a1d565b979650505050505050565b6000604051905081810181811067ffffffffffffffff82111715610cf557610cf4610e48565b5b8060405250919050565b600067ffffffffffffffff821115610d1a57610d19610e48565b5b601f19601f8301169050602081019050919050565b600081519050919050565b600082825260208201905092915050565b6000610d5682610d7b565b9050919050565b6000610d6882610d7b565b9050919050565b60008115159050919050565b600073ffffffffffffffffffffffffffffffffffffffff82169050919050565b6000819050919050565b82818337600083830152505050565b60005b83811015610dd2578082015181840152602081019050610db7565b83811115610de1576000848401525b50505050565b60006002820490506001821680610dff57607f821691505b60208210811415610e1357610e12610e19565b5b50919050565b7f4e487b7100000000000000000000000000000000000000000000000000000000600052602260045260246000fd5b7f4e487b7100000000000000000000000000000000000000000000000000000000600052604160045260246000fd5b6000601f19601f8301169050919050565b610e9181610d5d565b8114610e9c57600080fd5b50565b610ea881610d9b565b8114610eb357600080fd5b5056fea264697066735822122076e7c991bd8192f123d304bb53da238510e577e83729f1268affcd4e181bbee864736f6c63430008000033",
  "immutableReferences": {},
  "source": "// SPDX-License-Identifier: MIT\npragma solidity ^0.8.0;\n\ncontract PropertyRental {\n    address public owner;\n    struct Property {\n        uint256 id;\n        address payable agent;\n        string title;\n        string location;\n        uint256 price;\n        bool isRented;\n    }\n\n    mapping(uint256 => Property) public properties;\n\n    event PropertyRented(uint256 propertyId, address renter);\n\n    constructor() public {  // Constructor visibility added\n        owner = msg.sender;\n    }\n\n    function addProperty(\n        uint256 id,\n        address payable agent,\n        string memory title,\n        string memory location,\n        uint256 price\n    ) public {\n        require(msg.sender == owner, \"Only the owner can add properties.\");\n        properties[id] = Property(id, agent, title, location, price, false);\n    }\n\n    function rentProperty(uint256 propertyId) public payable {\n        Property storage property = properties[propertyId];\n        require(!property.isRented, \"Property is already rented.\");\n        require(msg.value >= property.price, \"Insufficient funds.\");\n\n        property.agent.transfer(msg.value);\n        property.isRented = true;\n\n        emit PropertyRented(propertyId, msg.sender);\n    }\n\n    function getProperty(uint256 propertyId)\n        public\n        view\n        returns (\n            address agent,\n            string memory title,\n            string memory location,\n            uint256 price,\n            bool isRented\n        )\n    {\n        Property memory property = properties[propertyId];\n        return (\n            property.agent,\n            property.title,\n            property.location,\n            property.price,\n            property.isRented\n        );\n    }\n}\n",
  "sourcePath": "/home/clement/clemzagency/contracts/MyContract.sol",
  "compiler": {
    "name": "solc",
    "version": "0.8.0+commit.c7dfd78e.Emscripten.clang"
  },
  "schemaVersion": "3.4.16",
  "updatedAt": "2025-01-28T17:11:01.080Z",
  "networkType": "ethereum",
  "devdoc": {
    "kind": "dev",
    "methods": {},
    "version": 1
  },
  "userdoc": {
    "kind": "user",
    "methods": {},
    "version": 1
  }
}